:100000000C945B000C9483000C9483000C9483008C
:100010000C9483000C9483000C9483000C94830054
:100020000C9483000C9483000C9483000C94830044
:100030000C9483000C9483000C9483000C94830034
:100040000C94DF040C9483000C94C4060C9483007D
:100050000C9483000C9483000C9483000C94830014
:100060000C9483000C948300000024272A000025B0
:10007000282B000023262904040404040404040299
:100080000202020202030303030303010204081035
:100090002040800102040810200102040810200002
:1000A0000000070002010000030406000000000039
:1000B00000000000DE0411241FBECFEFD4E0DEBF3D
:1000C000CDBF11E0A0E0B1E0E0E9F0E102C00590B1
:1000D0000D92A837B107D9F712E0A8E7B1E001C047
:1000E0001D92A830B107E1F710E0C6EBD0E004C0E4
:1000F0002297FE010E944308C43BD107C9F70E9422
:1001000012040C9447080C94000080917D0190919A
:100110007E01019690937E0180937D01823391054B
:100120002CF010927E0110927D0102C08D9724F573
:1001300060E080916E010E94FF0560E08091700197
:100140000E94FF0560E00FC061E0809170010E9495
:10015000FF0561E080916E0108C061E0809170014F
:100160000E94FF0561E080916C010E94FF050895E7
:1001700061E080917001F9CF80917A0190917B01CB
:100180008430910551F386309105F1F2029781F7A1
:10019000CFCFCF93DF93EC010E94B305892B71F48D
:1001A00084E690E00E943E058C2F0E94B305892BC7
:1001B00029F410927C0181E090E002C080E090E0A0
:1001C000DF91CF91089580917401909175010E9403
:1001D000C900882319F080E390E00AC08091720181
:1001E000909173010E94C900882339F08AE390E05E
:1001F0009093790180937801089580917601909190
:1002000077010E94C900882331F084E390E0909345
:10021000790180937801089561E0809168010E94DE
:10022000FF0504C085E090E00E943E0580916401D6
:100230000E94B3050197B1F385E090E00E943E056E
:10024000809164010E94B305892B81F760E0809161
:1002500068010E94FF0508954F925F926F927F920E
:100260008F929F92AF92BF92CF92DF92EF92FF92C6
:100270000F931F9388E690E00E943E0580916401F1
:100280000E94B3058C0188E690E00E943E058091B3
:1002900064010E94B3052C0188E690E00E943E05AF
:1002A000809164010E94B3053C0188E690E00E94C1
:1002B0003E05809164010E94B3054C0188E690E000
:1002C0000E943E05809164010E94B3055C0188E6AE
:1002D00090E00E943E05809164010E94B3056C018C
:1002E00088E690E00E943E05809164010E94B3057B
:1002F0007C0188E690E00E943E05809164010E94A6
:10030000B305440C551C0429660C771C660C771C3D
:10031000062963E0880C991C6A95E1F7082954E0E6
:10032000AA0CBB1C5A95E1F70A2945E0CC0CDD1C50
:100330004A95E1F70C2936E0EE0CFF1C3A95E1F7FF
:100340000E299695982F882797958795082B0095C5
:10035000802F99271F910F91FF90EF90DF90CF9002
:10036000BF90AF909F908F907F906F905F904F90D5
:1003700008950F931F93082F84E590E00E943E0597
:10038000602F6170809166010E94FF058EE590E00C
:100390000E943E051127B8016270707075956795CF
:1003A000809166010E94FF058EE590E00E943E0567
:1003B000B8016470707075956795759567958091B3
:1003C00066010E94FF058EE590E00E943E05B8019F
:1003D0006870707093E0759567959A95E1F78091D4
:1003E00066010E94FF058EE590E00E943E05B8017F
:1003F0006071707084E0759567958A95E1F78091DA
:1004000066010E94FF058EE590E00E943E05B8015E
:1004100060727070B5E075956795BA95E1F7809157
:1004200066010E94FF058EE590E00E943E05B8013E
:1004300060747070A6E075956795AA95E1F7809154
:1004400066010E94FF058EE590E00E943E05000FC8
:10045000012F001F110B1195602F809166010E94E2
:10046000FF058EE590E00E943E0560E08091660108
:100470000E94FF051F910F910895CF93DF9361E0D4
:10048000809168010E94FF050FC089E190E00E9401
:100490003E05809164010E94B305892B29F02196C5
:1004A000C639D10541F0F1CFC0E0D0E0EECF89E10F
:1004B00090E00E943E05809164010E94B30501977F
:1004C000B1F360E0809168010E94FF05DF91CF9158
:1004D000089561E0809162010E94FF0568EE73E07B
:1004E00080E090E00E941C0560E0809162010E9423
:1004F000FF0568EE73E080E090E00E941C0561E07B
:10050000809162010E94FF0568EE73E080E090E058
:100510000E941C0560E0809162010E94FF0568EE68
:1005200073E080E090E00E941C0561E08091620130
:100530000E94FF0568EE73E080E090E00E941C05D9
:1005400060E0809162010E94FF0568EE73E080E048
:1005500090E00E941C0508959F92AF92BF92CF92A7
:10056000DF92EF92FF920F931F93CF93DF93CDB75C
:10057000DEB728970FB6F894DEBF0FBECDBF60E0A0
:10058000809168010E94FF050E94690280E390E06B
:1005900090937901809378010E94E3000E943D02CC
:1005A00080917C01883068F48F5F80937C0188E1C2
:1005B0000E94B9010E940C01809178010E94B9014A
:1005C00006C00E942C010E940C010E942C018E0189
:1005D0000D5F1F4F0E940C010E942C01F8018193B6
:1005E0008F01CE010996E817F907A1F79D80892DA3
:1005F000992790937B0180937A010E9485008091D6
:100600006A010E94B305019739F28FE791E00E94D9
:10061000350460E071E08FE791E00E94BF048E0135
:100620000B5F1F4F6BE071E08FE791E00E94BF040A
:10063000F80141918F0155276627772722E030E0A6
:100640008FE791E00E9491046DE071E08FE791E007
:100650000E94BF04CE0109960817190719F76FE029
:1006600071E08FE791E00E94BF04492D552766276E
:10067000772720E130E08FE791E00E9491046FE05E
:1006800071E08FE791E00E94BF04AF80BB24CC24CF
:10069000DD2420E130E0B601A5018FE791E00E9462
:1006A000910461E171E08FE791E00E94BF04E8846A
:1006B000FF240027112720E130E0B801A7018FE7D0
:1006C00091E00E9491046FE071E08FE791E00E9459
:1006D000BF042AE030E0B601A5018FE791E00E9457
:1006E000910461E171E08FE791E00E94BF042AE08C
:1006F00030E0B801A7018FE791E00E949104F6E095
:100700009F1629F1F91558F083E0981679F1E4E085
:100710009E16D1F0F2E09F1609F03ECF12C086E49B
:100720009816C1F0891528F0E7E09E1609F034CF3D
:1007300017C0F6E59F1689F083E8981609F02CCFCC
:1007400012C063E171E014C06BE171E011C062E2BC
:1007500071E00EC06AE271E00BC067E371E008C0AF
:1007600064E471E005C062E571E002C06AE571E031
:100770008FE791E00E94BF040FCF61E0809162019A
:100780000E94950560E0809164010E94950561E0FA
:10079000809168010E94950561E0809166010E9448
:1007A000950561E080916C010E94950561E0809162
:1007B00070010E94950560E080916A010E94950594
:1007C00061E080916A010E94FF0560E08091720102
:1007D0000E94950561E0809172010E94FF0560E032
:1007E000809174010E94950561E0809174010E94DE
:1007F000FF0560E0809176010E94950561E080919F
:1008000076010E94FF0510927E0110927D011092E8
:100810007C0140E855E260E070E08FE791E00E94E3
:10082000D80408950E944B050E94BD030E94AC02AB
:10083000FDCF08950895CB01BA01332744275527EA
:100840000E940A0708952AE00E941B040895AB0144
:10085000662777270E9423040895862F0E940207A7
:100860000895862F0E94020708950F931F938C010D
:100870006DE00E9431046AE0C8010E9431041F91BA
:100880000F9108950F931F938C010E942304C801B8
:100890000E9435041F910F9108950F931F938C01AF
:1008A0000E942D04C8010E9435041F910F910895E4
:1008B0000F931F938C010E943104C8010E943504DC
:1008C0001F910F910895EF92FF920F931F93CF9373
:1008D000DF93EC017A018B0177FF0BC06DE20E9480
:1008E000310410950095F094E094E11CF11C011D79
:1008F000111D2AE0B801A701CE010E941B04DF915F
:10090000CF911F910F91FF90EF9008950F931F9338
:100910008C010E946304C8010E9435041F910F914D
:1009200008952115310521F4642F0E9431040895A2
:100930002A30310519F40E94630408950E941B04B3
:1009400008950F931F938C010E949104C8010E9487
:1009500035041F910F910895AB01662757FD6095EF
:10096000762F0E94630408950F931F938C010E94B9
:10097000AC04C8010E9435041F910F910895CB016A
:100980000E94D00708950F931F938C010E94BF040B
:10099000C8010E9435041F910F9108950E94BB0663
:1009A00008950E949C0608950E948B069927089539
:1009B000CB01BA010E944A060895089508951F9236
:1009C0000F920FB60F9211248F939F93AF93BF9303
:1009D0008091840190918501A0918601B091870159
:1009E0000196A11DB11D8093840190938501A09370
:1009F0008601B0938701BF91AF919F918F910F9026
:100A00000FBE0F901F901895609184017091850121
:100A1000809186019091870127E0660F771F881FDC
:100A2000991F2A95D1F72DE730E040E050E00E9471
:100A3000F007CA01B9010895AF92BF92CF92DF9239
:100A4000EF92FF920F931F935B016C010E940405CC
:100A50007B018C010E9404056E197F09800B910BAC
:100A60006A157B058C059D05A8F31F910F91FF90DA
:100A7000EF90DF90CF90BF90AF900895019751F025
:100A8000880F991F880F991F02972FB7F894019725
:100A9000F1F72FBF08957894109284011092850188
:100AA000109286011092870184B5826084BD84B55E
:100AB000816084BD85B5826085BD85B5816085BD59
:100AC000EEE6F0E0808181608083E1E8F0E0808103
:100AD00082608083808181608083E0E8F0E08081B3
:100AE00081608083E1EBF0E0808184608083E0EBD3
:100AF000F0E0808181608083ECE7F0E080818F7797
:100B00008083808180648083EAE7F0E08081846074
:100B10008083808182608083808181608083808106
:100B2000806880831092C1000895282F3327C9015F
:100B300085579F4FFC01949129583F4FF9018491AB
:100B4000882381F0E82FFF27E859FF4FE491FF2722
:100B5000662329F48081909589238083089580817C
:100B6000892B80830895482F5527CA0181569F4FAE
:100B7000FC012491CA0185579F4FFC01949149586B
:100B80005F4FFA013491332319F480E090E0089527
:100B9000222331F1233021F4809180008F7705C02A
:100BA000243031F4809180008F7D8093800018C0C4
:100BB000213019F484B58F7704C0223021F484B534
:100BC0008F7D84BD0DC0263021F48091B0008F77D9
:100BD00005C0273029F48091B0008F7D8093B0004C
:100BE000E32FFF27EE58FF4FE491FF27808120E09D
:100BF00030E0892311F021E030E0C9010895482F49
:100C00005527CA0181569F4FFC012491CA0185577F
:100C10009F4FFC01949149585F4FFA01349133235F
:100C2000C1F1222331F1233021F4809180008F77AC
:100C300005C0243031F4809180008F7D8093800046
:100C400018C0213019F484B58F7704C0223021F404
:100C500084B58F7D84BD0DC0263021F48091B00015
:100C60008F7705C0273029F48091B0008F7D809365
:100C7000B000E32FFF27E359FF4FE491FF276623DE
:100C800029F4808190958923808308958081892B20
:100C900080830895EF92FF920F931F937B018C0145
:100CA00022E030E040E050E00E941208205C3D4B22
:100CB000404F5F4FCA01B901A80197010E94120875
:100CC0002150304040405040BB2757FDBA95A52FDA
:100CD000942F832F2F5F3F4F4F4F5F4F8093C5005F
:100CE00021502093C400E1ECF0E08081806180839A
:100CF0008081886080838081806880831F910F91CC
:100D0000FF90EF900895982F8091C00085FFFCCF51
:100D10009093C60008958091800190918101209167
:100D2000820130918301821B930B80589F4F60E8B2
:100D300070E00E94DD070895409182015091830187
:100D400080918001909181018417950719F48FEFAC
:100D50009FEF0895FA01E857FE4F2081CA010196DE
:100D600060E870E00E94DD07909383018093820128
:100D7000822F992708958091820190918301909309
:100D800081018093800108951F920F920FB60F92F8
:100D900011242F933F934F935F936F937F938F9380
:100DA0009F93AF93BF93EF93FF934091C600E09161
:100DB0008001F0918101CF01019660E870E00E940E
:100DC000DD079C01809182019091830128173907EA
:100DD00039F0E857FE4F4083309381012093800122
:100DE000FF91EF91BF91AF919F918F917F916F9103
:100DF0005F914F913F912F910F900FBE0F901F90D9
:100E000018950895982F8091C00085FFFCCF90938E
:100E1000C60008952F923F924F925F926F927F92F9
:100E20008F929F92AF92BF92CF92DF92EF92FF92FA
:100E30000F931F93CF93DF93CDB7DEB7A0970FB675
:100E4000F894DEBF0FBECDBF6B017C0129013A01D2
:100E5000611571058105910541F48091C00085FF00
:100E6000FCCF80E38093C60041C0882499245401BC
:100E70001E010894211C311C8101080D191DC70198
:100E8000B601A30192010E94F007F8016083089463
:100E9000811C911CA11CB11CC701B601A3019201C8
:100EA0000E94F00769017A012115310541055105BC
:100EB00019F79E012F5F3F4F14C0089481089108D5
:100EC000A108B108F901E80DF91DE081EA3010F43C
:100ED000E05D01C0E95C8091C00085FFFCCFE0933C
:100EE000C60081149104A104B10439F7A0960FB68D
:100EF000F894DEBF0FBECDBFDF91CF911F910F9150
:100F0000FF90EF90DF90CF90BF90AF909F908F9029
:100F10007F906F905F904F903F902F90089520E1C9
:100F200030E040E050E00E940A07089528E030E0F9
:100F300040E050E00E940A07089522E030E040E0DF
:100F400050E00E940A0708958091C00085FFFCCF01
:100F50008AE08093C6000895EF92FF920F931F934B
:100F60007B018C0197FF0FC08091C00085FFFCCFF3
:100F70008DE28093C60010950095F094E094E11CFA
:100F8000F11C011D111D2AE030E040E050E0C801D5
:100F9000B7010E940A071F910F91FF90EF900895EB
:100FA000FC0107C08091C00085FFFCCF3196909373
:100FB000C60090819923B1F7089597FB092E072663
:100FC0000AD077FD04D049D006D000201AF47095DD
:100FD00061957F4F0895F6F7909581959F4F0895FD
:100FE000A1E21A2EAA1BBB1BFD010DC0AA1FBB1F2D
:100FF000EE1FFF1FA217B307E407F50720F0A21B9F
:10100000B30BE40BF50B661F771F881F991F1A940B
:1010100069F760957095809590959B01AC01BD0135
:10102000CF01089597FB092E05260ED057FD04D059
:10103000D7DF0AD0001C38F45095409530952195A3
:101040003F4F4F4F5F4F0895F6F7909580957095FD
:1010500061957F4F8F4F9F4F0895AA1BBB1B51E196
:1010600007C0AA1FBB1FA617B70710F0A61BB70B18
:10107000881F991F5A95A9F780959095BC01CD01BD
:101080000895EE0FFF1F0590F491E02D0994FFCF16
:101090004C414E4320446174613A005B005D002D79
:1010A000002C00202D2053544F5000202D2052455D
:1010B0004300202D20504C415900202D20504C4100
:1010C00059204646574400202D20504C415920526B
:1010D00045574400202D20504C4159205041555334
:1010E0004500202D205245574400202D20464657CC
:1010F00044000D00030002000C000400060007007D
:0811000008000A0009000B00C1
:00000001FF
